:100000000C942A000C9447000C9447000C94470071
:100010000C9447000C9447000C9447000C94470044
:100020000C9447000C9447000C9447000C94470034
:100030000C9447000C9447000C9447000C94470024
:100040000C9447000C9447000C9447000C94470014
:100050000C94470011241FBECFE5D8E0DEBFCDBF12
:1000600010E0A0E6B0E0E6ECF4E002C005900D92EE
:10007000A236B107D9F716E0A2E6B0E001C01D92A2
:10008000A03AB107E1F70E9424020C9461020C949B
:100090000000A998A89A0895A99AA89A0895A898DE
:1000A000A99A089585B3836085BB0895CF92DF92A6
:1000B000EF92FF920F931F93CF93DF93EE24FF24D1
:1000C000CC24DD24EBBA8701000F111F0295129595
:1000D000107F1027007F10270C591F4FE601F801F1
:1000E000819191918F018130910549F40E944C00DA
:1000F0009E012295207F22BB0E944F0008C08230C3
:10010000910529F40E945200C2BB0E944900219629
:10011000C031D10521F70E9452000894E11CF11C66
:1001200090E1E916F10471F6DF91CF911F910F91E3
:10013000FF90EF90DF90CF90089582E090E0909351
:10014000CD008093CC009093CF008093CE0090930D
:10015000D1008093D0009093D3008093D2009093ED
:10016000D5008093D4009093D7008093D600089553
:1001700020E030E040E050E02BBBCA01682F6295E0
:10018000607F62BB019680319105C1F72F5F3F4FC1
:100190002031310589F7089520E030E040E050E05B
:1001A0001BBACA0182BB019680319105D9F72F5F36
:1001B0003F4F20313105A1F70895AF92BF92CF9202
:1001C000DF92EF92FF920F931F93CF93DF93EEE5B1
:1001D000F2E020E030E0C3E0D0E00F2EF6E0AF2EFA
:1001E000BB24F02D0F2EF9E0CF2EDD24F02D0F2EA5
:1001F000FEE0EF2EFF24F02D05E010E0C901BE0166
:100200000E943A02009719F4F186E0860BC0813013
:10021000910519F4D186C08605C08230910511F48C
:10022000B186A0861216130644F460817181448160
:100230005581460F571F53874287009719F417833C
:1002400006830BC08130910519F4D783C68305C09E
:100250008230910511F4178306832F5F3F4F369646
:10026000243B310559F6DF91CF911F910F91FF90FB
:10027000EF90DF90CF90BF90AF9008959C01220F38
:10028000331F280F391FF901EE0FFF1FEC59FD4FE7
:100290008481958160817181680F791F209162004E
:1002A00030916300A901415F5F4F8217930734F0DB
:1002B000461757078CF4281739071CF06217730785
:1002C00074F44817590774F021E030E0641775079B
:1002D0005CF420E030E008C021E030E005C021E01F
:1002E00030E002C020E030E0822F932F0895CF93BA
:1002F000DF93FC01EE0FFF1FE80FF91FEE0FFF1F4A
:10030000EC59FD4FA281B381248135814091620077
:1003100050916300BA01421753070CF4B901FA0176
:100320003F96EC01CC0FDD1F8C0F9D1FEC01CC0F15
:10033000DD1FCC59DD4F88819981280F391F21504D
:100340003040E217F3070CF49F0126173707CCF073
:10035000FD01E295F295F07FFE27E07FFE27CB01BD
:10036000841B950BE80FF91FEE0FFF1FEC59FF4F91
:10037000CB0141E050E04193519301962817390792
:10038000D4F7DF91CF9108950F931F93CF93DF930D
:1003900080E092E0E4E6F0E0DF019C011D92215054
:1003A0003040E1F7C0919E06D0919F068FEF9FE706
:1003B00090939F0680939E06CE010596C817D90795
:1003C000C4F48C01CE010E943E01009771F080912F
:1003D0009E0690919F06C817D90724F4D0939F06D4
:1003E000C0939E06CE010E9477012196C017D107C7
:1003F00049F7DF91CF911F910F9108958FEF8ABB3D
:1004000081BB84BB8EEF87BB089580919C06909141
:100410009D06019665E070E00E943A02282F392F70
:1004200080939C0690939D06B09B09C081E090E06C
:100430002130310511F080E090E09C0102C020E005
:1004400030E0822F932F08950E94FE010E94DD006C
:100450000E94C4010E9456000E9405020097C1F349
:100460008091620090916300019690936300809365
:100470006200EECF97FB092E07260AD077FD04D045
:100480000CD006D000201AF4709561957F4F089526
:10049000F6F7909581959F4F0895AA1BBB1B51E1DC
:1004A00007C0AA1FBB1FA617B70710F0A61BB70BE4
:1004B000881F991F5A95A9F780959095BC01CD0189
:0604C0000895F894FFCF3F
:0204C600B40080
:00000001FF
