:100000000C942A000C9447000C9447000C94470071
:100010000C9447000C9447000C9447000C94470044
:100020000C9447000C9447000C9447000C94470034
:100030000C9447000C9447000C9447000C94470024
:100040000C9447000C9447000C9447000C94470014
:100050000C94470011241FBECFE5D8E0DEBFCDBF12
:1000600010E0A0E6B0E0E0E2FAE002C005900D92F8
:10007000A236B107D9F717E0A2E6B0E001C01D92A1
:10008000AA3EB107E1F70E9497040C940E050C9468
:100090000000A998A89A0895A99AA89A0895A898DE
:1000A000A99A089585B3836085BB0895CF92DF92A6
:1000B000EF92FF920F931F93CF93DF93EE24FF24D1
:1000C000CC24DD24EBBA8701000F111F0295129595
:1000D000107F1027007F102702591F4FE601F801FB
:1000E000819191918F018130910549F40E944C00DA
:1000F0009E012295207F22BB0E944F000BC08230C0
:10010000910534F00E945200C2BB0E94490002C017
:100110000E9452002196C031D10509F70E94520079
:100120000894E11CF11C90E1E916F10459F6DF9105
:10013000CF911F910F91FF90EF90DF90CF90089596
:1001400082E090E09093D7008093D6009093D900FE
:100150008093D8009093DB008093DA009093DD00C9
:100160008093DC009093DF008093DE009093E100A9
:100170008093E000089520E030E040E050E02BBBA9
:10018000CA01682F6295607F62BB0196803191053C
:10019000C1F72F5F3F4F2031310589F7089520E0E7
:1001A00030E040E050E01BBACA0182BB01968031CA
:1001B0009105D9F72F5F3F4F20313105A1F7089501
:1001C000C29A87EA91E60197F1F700C0000018BAD9
:1001D0000895AF92BF92CF92DF92EF92FF920F936A
:1001E0001F93CF93DF93E8E6F2E020E030E0C3E036
:1001F000D0E00F2EF6E0AF2EBB24F02D0F2EFAE04C
:10020000CF2EDD24F02D0EE010E00F2EFFE0EF2EBC
:10021000FF24F02DC901BE010E94E704009719F4E4
:10022000118700870BC08130910519F4D186C086F3
:1002300005C08230910511F4B186A086121613060E
:1002400004F58130910549F46081718144815581C3
:10025000460F571F5387428719C08230910549F4D2
:100260006081718144815581460F571F53874287B2
:100270000DC06081718144815581460F571F53879E
:100280004287009719F4F782E6820BC0813091050E
:1002900019F4D782C68205C08230910511F4D78245
:1002A000C6822F5F3F4F36962436310509F0B2CF14
:1002B000DF91CF911F910F91FF90EF90DF90CF9042
:1002C000BF90AF900895AEE6B2E0E6ECF4E046EC05
:1002D00054E021E030E012968D919C9113970197A4
:1002E0009183808314966D917C9115978D919C914B
:1002F0001197860F971F05979383828337832683F1
:100300001582148216963896A417B50721F708951A
:1003100082E090E0909367008093660081E090E037
:10032000909369008093680010926B0010926A00AD
:1003300085E090E090936D0080936C0008959C019F
:10034000220F331F280F391FF901EE0FFF1FE2594B
:10035000FD4F8481958160817181680F791F2091A3
:10036000620030916300A901415F5F4F82179307DC
:1003700034F0461757078CF4281739071CF062171A
:10038000730774F44817590774F021E030E06417DC
:1003900075075CF420E030E008C021E030E005C0E3
:1003A00021E030E002C020E030E0822F932F08955A
:1003B000CF93DF93FC01EE0FFF1FE80FF91FEE0F45
:1003C000FF1FE259FD4FA281B38124813581409105
:1003D000620050916300BA01421753070CF4B9014F
:1003E000FA013F96EC01CC0FDD1F8C0F9D1FEC0135
:1003F000CC0FDD1FC259DD4F88819981280F391F2D
:1004000021503040E217F3070CF49F0126173707FD
:10041000CCF0FD01E295F295F07FFE27E07FFE270C
:10042000CB01841B950BE80FF91FEE0FFF1FE2595C
:10043000FF4FCB0141E050E04193519301962817C3
:100440003907D4F7DF91CF9108950F931F93CF937E
:10045000DF9380E092E0EEE6F0E0DF019C011D9288
:1004600021503040E1F7C091E807D091E9078FEFC4
:100470009FE79093E9078093E807CE010596C81798
:10048000D907C4F48C01CE010E949F01009771F03E
:100490008091E8079091E907C817D90724F4D09311
:1004A000E907C093E807CE010E94D8012196C01742
:1004B000D10749F7DF91CF911F910F9108952091B6
:1004C000620030916300A901415F5F4FFC01EE0FB4
:1004D000FF1FEE0FFF1FEE0FFF1FEA53FB4F82813E
:1004E0009381821793071CF04817590764F401960B
:1004F000821793075CF021E030E04817590744F475
:1005000020E030E005C021E030E002C020E030E033
:10051000822F932F0895FC01EE0FFF1FEE0FFF1F98
:10052000EE0FFF1FEA53FB4FA081B18120916200C3
:100530003091630042815381CA01421753070CF482
:10054000C901B901615F7F4F4F5F5F4F6417750746
:100550000CF4AB0148175907DCF01197FD01E29547
:10056000F295F07FFE27E07FFE27BC01621B730B34
:10057000E60FF71FEE0FFF1FE259FF4F23E030E0B9
:1005800031A320A321933193019648175907C4F74B
:100590000895CF93DF93C091E807D091E907CE018A
:1005A0000596C817D9078CF4CE010E945F02009708
:1005B00019F0CE010E948B0221968091E80790915C
:1005C000E9070596C817D9077CF3DF91CF91089505
:1005D00080916C0090916D00009709F458C02091B3
:1005E00066003091670080916800909169000196E3
:1005F000F901E295F295F07FFE27E07FFE27E80FF4
:10060000F91FEE0FFF1FE259FF4F41E050E06081FC
:1006100071816115710511F040E050E0F9013197E9
:10062000E295F295F07FFE27E07FFE27E80FF91FA5
:10063000EE0FFF1FE259FF4F608171816115710557
:1006400011F040E050E022503040F901E295F2957F
:10065000F07FFE27E07FFE278E0F9F1FFC01EE0F2D
:10066000FF1FE259FF4F80819181009799F4411556
:10067000510599F0B09B14C021E030E080916400F6
:1006800090916500009771F020E030E00BC020E011
:1006900030E008C020E030E005C020E030E002C0DB
:1006A00020E030E0822F932F089582E090E0909335
:1006B00067008093660010926B0010926A000895A4
:1006C00080916C0090916D00019790936D008093E4
:1006D0006C000E94E00008950F931F93CF93DF9367
:1006E0008091E6079091E707009709F072C0A0910A
:1006F0006A00B0916B001A161B06B4F520916600D3
:10070000309167001197E0916800F09169002150E5
:10071000304080E090E06EE670E000E010E0A9017B
:10072000481B590B42955295507F5427407F5427C0
:100730004E0F5F1F440F551F460F571FEA01488198
:1007400059814130510519F42F5F3F4FD80101966F
:100750008330910521F73093670020936600B093B2
:100760006B00A0936A001FC08091660090916700A3
:100770000196FC01E295F295F07FFE27E07FFE27CF
:100780002091680030916900E20FF31FEE0FFF1F08
:10079000E259FF4F208131812115310521F49093D9
:1007A00067008093660080916600909167009C01CD
:1007B000225030403AF482E090E0909367008093BA
:1007C000660007C08F30910524F00E9460030E94EC
:1007D0005503DF91CF911F910F91089580916C0087
:1007E00090916D00009709F451C00E946C036091D4
:1007F0006600709167004091680050916900FB01AC
:10080000E295F295F07FFE27E07FFE27E40FF51FCB
:100810002EE630E0EE0FFF1FE20FF31F82E090E0C4
:1008200091838083FB013197E295F295F07FFE275B
:10083000E07FFE27E40FF51FEE0FFF1FE20FF31F0F
:10084000918380836250704062957295707F7627A5
:10085000607F7627460F571F440F551F240F351F03
:10086000F9019183808320916C0030916D00121604
:10087000130664F4EEE8F0E080E090E042E050E03F
:1008800052934293019682179307D4F308958FEF02
:100890008ABB81BB84BB8CEF87BB089580916C00C1
:1008A00090916D001816190634F5E0916600F091EC
:1008B00067003196E295F295F07FFE27E07FFE27F4
:1008C0008091680090916900E80FF91FEE0FFF1FFB
:1008D000E259FF4F80819181009781F0B19B11C057
:1008E00021E030E08091E6079091E707009759F00A
:1008F00020E030E008C020E030E005C020E030E03B
:1009000002C020E030E0822F932F089586E090E02F
:1009100090936B0080936A0008958091620090919B
:100920006300019690936300809362000895EF92B4
:10093000FF920F931F93CF93DF930E9447040E946F
:10094000E9000E9463010E948801C4E0D0E002E057
:1009500010E00F2EFCE6EF2EF0E0FF2EF02D2091A0
:10096000E6073091E7072F5F3F4F80916400909139
:1009700065000196BE010E94E70490936500809394
:100980006400C901B8010E94E7049093E7078093CF
:10099000E6070E9425020E94C9020E94EE030E94FF
:1009A0005600F701808191810097C9F20E94E80208
:1009B000009711F00E948D040E9456000E944E0480
:1009C000009711F00E9486040E945600C8CF97FB42
:1009D000092E07260AD077FD04D00CD006D00020BF
:1009E0001AF4709561957F4F0895F6F7909581956B
:1009F0009F4F0895AA1BBB1B51E107C0AA1FBB1F35
:100A0000A617B70710F0A61BB70B881F991F5A959A
:100A1000A9F780959095BC01CD010895F894FFCF7A
:020A2000640070
:00000001FF
