:100000000C942A000C9447000C9447000C94470071
:100010000C9447000C9447000C9447000C94470044
:100020000C9447000C9447000C9447000C94470034
:100030000C9447000C9447000C9447000C94470024
:100040000C9447000C9447000C9447000C94470014
:100050000C94470011241FBECFE5D8E0DEBFCDBF12
:1000600010E0A0E6B0E0E4E3F8E002C005900D92F5
:10007000A236B107D9F716E0A2E6B0E001C01D92A2
:10008000AA3AB107E1F70E94B2030C9418040C9449
:100090000000A998A89A0895A99AA89A0895A898DE
:1000A000A99A089585B3836085BB0895CF92DF92A6
:1000B000EF92FF920F931F93CF93DF93EE24FF24D1
:1000C000CC24DD24EBBA8701000F111F0295129595
:1000D000107F1027007F102702591F4FE601F801FB
:1000E000819191918F018130910549F40E944C00DA
:1000F0009E012295207F22BB0E944F000BC08230C0
:10010000910531F40E945200C2BB0E94490002C016
:100110000E9452002196C031D10509F70E94520079
:100120000894E11CF11C90E1E916F10459F6DF9105
:10013000CF911F910F91FF90EF90DF90CF90089596
:1001400082E090E09093D7008093D6009093D900FE
:100150008093D8009093DB008093DA009093DD00C9
:100160008093DC009093DF008093DE009093E100A9
:100170008093E000089520E030E040E050E02BBBA9
:10018000CA01682F6295607F62BB0196803191053C
:10019000C1F72F5F3F4F2031310589F7089520E0E7
:1001A00030E040E050E01BBACA0182BB01968031CA
:1001B0009105D9F72F5F3F4F20313105A1F7089501
:1001C000AF92BF92CF92DF92EF92FF920F931F9365
:1001D000CF93DF93E8E6F2E020E030E0C3E0D0E048
:1001E0000F2EF6E0AF2EBB24F02D0F2EFAE0CF2E0F
:1001F000DD24F02D0F2EFEE0EF2EFF24F02D05E084
:1002000010E0C901BE010E94F103009719F4F186C4
:10021000E0860BC08130910519F4D186C08605C0F7
:100220008230910511F4B186A0861216130644F4AB
:100230006081718144815581460F571F53874287E2
:10024000009719F4178306830BC08130910519F4C8
:10025000D783C68305C08230910511F417830683C6
:100260002F5F3F4F3696243B310559F6DF91CF91F2
:100270001F910F91FF90EF90DF90CF90BF90AF90C4
:10028000089581E090E090936D0080936C00E6E625
:10029000F0E08091700290917102019791838083C8
:1002A00080917202909173020196938382831582EA
:1002B000148208959C01220F331F280F391FF90162
:1002C000EE0FFF1FE259FD4F84819581608171819E
:1002D000680F791F2091620030916300A901415F8E
:1002E0005F4F8217930734F0461757078CF428178F
:1002F00039071CF06217730774F44817590774F034
:1003000021E030E0641775075CF420E030E008C0BD
:1003100021E030E005C021E030E002C020E030E024
:10032000822F932F0895CF93DF93FC01EE0FFF1FD1
:10033000E80FF91FEE0FFF1FE259FD4FA281B381B5
:10034000248135814091620050916300BA014217C7
:1003500053070CF4B901FA013F96EC01CC0FDD1FF5
:100360008C0F9D1FEC01CC0FDD1FC259DD4F888122
:100370009981280F391F21503040E217F3070CF400
:100380009F0126173707CCF0FD01E295F295F07F2B
:10039000FE27E07FFE27CB01841B950BE80FF91F9A
:1003A000EE0FFF1FE259FF4FCB0141E050E04193B8
:1003B0005193019628173907D4F7DF91CF9108950B
:1003C0000F931F93CF93DF9380E092E0EEE6F0E08F
:1003D000DF019C011D9221503040E1F7C091A80639
:1003E000D091A9068FEF9FE79093A9068093A80666
:1003F000CE010596C817D907C4F48C01CE010E941E
:100400005A01009771F08091A8069091A906C8172B
:10041000D90724F4D093A906C093A806CE010E9460
:1004200093012196C017D10749F7DF91CF911F9112
:100430000F91089580916C0090916D00009709F4E0
:100440005AC02091660030916700809168009091B9
:1004500069000196F901E295F295F07FFE27E07FB1
:10046000FE27E80FF91FEE0FFF1FE259FF4F41E093
:1004700050E0608171816130710511F440E050E01D
:10048000F9013197E295F295F07FFE27E07FFE2794
:10049000E80FF91FEE0FFF1FE259FF4F60817181D6
:1004A0006130710511F440E050E022503040F90114
:1004B000E295F295F07FFE27E07FFE278E0F9F1FCB
:1004C000FC01EE0FFF1FE259FF4F808191818130C7
:1004D0009105A1F041155105A1F0B09B15C021E097
:1004E00030E080916400909165008130910571F059
:1004F00020E030E00BC020E030E008C020E030E039
:1005000005C020E030E002C020E030E0822F932FD1
:1005100008950F931F93CF93DF938091A606909138
:10052000A7068130910509F072C0A0916A00B091D0
:100530006B001A161B06B4F5209166003091670017
:100540001197E0916800F09169002150304080E0FF
:1005500090E06EE670E000E010E0A901481B590B46
:1005600042955295507F5427407F54274E0F5F1F6E
:10057000440F551F460F571FEA01488159814130EA
:10058000510519F42F5F3F4FD80101968330910533
:1005900021F73093670020936600B0936B00A0931F
:1005A0006A001FC080916600909167000196FC016F
:1005B000E295F295F07FFE27E07FFE27209168000C
:1005C00030916900E20FF31FEE0FFF1FE259FF4F5A
:1005D000208131812115310521F4909367008093AA
:1005E00066008091660090916700803191053CF033
:1005F0008FE090E0909367008093660008C00297B8
:1006000032F482E090E09093670080936600DF917F
:10061000CF911F910F91089580916C0090916D0082
:100620000097F1F10E948902609166007091670065
:100630004091680050916900FB01E295F295F07FCE
:10064000FE27E07FFE27E40FF51F2EE630E0EE0FD9
:10065000FF1FE20FF31F82E090E091838083FB0194
:100660003197E295F295F07FFE27E07FFE27E40FB9
:10067000F51FEE0FFF1FE20FF31F9183808362507F
:10068000704062957295707F7627607F7627460F5F
:10069000571F440F551F240F351FF9019183808385
:1006A00008958FEF8ABB81BB84BB8CEF87BB089515
:1006B00080916C0090916D00009719F1E0916600B7
:1006C000F09167003196E295F295F07FFE27E07F8A
:1006D000FE278091680090916900E80FF91FEE0FE6
:1006E000FF1FE259FF4F808191818130910549F4CC
:1006F000B19B07C08091A6069091A7068130910515
:10070000A9F0B19B16C08091A6069091A7068130F2
:10071000910591F421E030E08091660090916700AE
:100720008F30910559F020E030E008C021E030E042
:1007300005C020E030E002C020E030E0822F932F9F
:10074000089585E090E090936B0080936A0008958F
:100750008091620090916300019690936300809372
:10076000620008950F931F93CF93DF930E9451036C
:100770000E94E0000E944101CAE0D0E005E010E0E4
:100780002091A6063091A7062F5F3F4F809164000D
:10079000909165000196BE010E94F103909365005F
:1007A00080936400C901B8010E94F1039093A706E9
:1007B0008093A6060E94E0010E940C030E9456004E
:1007C0000E941A02009711F00E94A8030E9456008E
:1007D0000E945803009711F00E94A1030E94560046
:1007E000CFCF97FB092E07260AD077FD04D00CD077
:1007F00006D000201AF4709561957F4F0895F6F7A2
:10080000909581959F4F0895AA1BBB1B51E107C08E
:10081000AA1FBB1FA617B70710F0A61BB70B881F90
:10082000991F5A95A9F780959095BC01CD0108951F
:04083000F894FFCF6A
:02083400B4000E
:00000001FF
