:100000000C942A000C9447000C9447000C94470071
:100010000C9447000C9447000C9447000C94470044
:100020000C9447000C9447000C9447000C94470034
:100030000C9447000C9447000C9447000C94470024
:100040000C9447000C9447000C9447000C94470014
:100050000C94470011241FBECFE5D8E0DEBFCDBF12
:1000600010E0A0E6B0E0EAECFCE002C005900D92E2
:10007000A436B107D9F718E0A4E6B0E001C01D929C
:10008000AA30B107E1F70E94E2050C9463060C94D4
:100090000000A998A89A0895A99AA89A0895A898DE
:1000A000A99A089585B3836085BB0895CF92DF92A6
:1000B000EF92FF920F931F93CF93DF93EE24FF24D1
:1000C000CC24DD24EBBA8701000F111F0295129595
:1000D000107F1027007F102702571F4FE601F801FD
:1000E000819191918F018130910549F40E944C00DA
:1000F0009E012295207F22BB0E944F000BC08230C0
:10010000910534F00E945200C2BB0E94490002C017
:100110000E9452002196C031D10509F70E94520079
:100120000894E11CF11C90E1E916F10459F6DF9105
:10013000CF911F910F91FF90EF90DF90CF90089596
:1001400082E090E09093F7008093F6009093F9009E
:100150008093F8009093FB008093FA009093FD0049
:100160008093FC009093FF008093FE009093010128
:1001700080930001089520E030E040E050E02BBB88
:10018000CA01682F6295607F62BB0196803191053C
:10019000C1F72F5F3F4F2031310589F7089520E0E7
:1001A00030E040E050E01BBACA0182BB01968031CA
:1001B0009105D9F72F5F3F4F20313105A1F7089501
:1001C000C29A87EA91E60197F1F700C0000018BAD9
:1001D0000895AF92BF92CF92DF92EF92FF920F936A
:1001E0001F93CF93DF93E8E8F2E020E030E0C3E034
:1001F000D0E00F2EF6E0AF2EBB24F02D0F2EFAE04C
:10020000CF2EDD24F02D0EE010E00F2EFFE0EF2EBC
:10021000FF24F02DC901BE010E943C06009719F48D
:10022000118700870BC08130910519F4D186C086F3
:1002300005C08230910511F4B186A086121613060E
:1002400004F58130910549F46081718144815581C3
:10025000460F571F5387428719C08230910549F4D2
:100260006081718144815581460F571F53874287B2
:100270000DC06081718144815581460F571F53879E
:100280004287009719F4F782E6820BC0813091050E
:1002900019F4D782C68205C08230910511F4D78245
:1002A000C6822F5F3F4F36962436310509F0B2CF14
:1002B000DF91CF911F910F91FF90EF90DF90CF9042
:1002C000BF90AF900895AEE8B2E0E6EEF4E046EEFF
:1002D00054E021E030E012968D919C9113970197A4
:1002E0009183808314966D917C9115978D919C914B
:1002F0001197860F971F05979383828337832683F1
:100300001582148216963896A417B50721F708951A
:1003100082E090E0909387008093860081E090E0F7
:10032000909389008093880010928B0010928A002D
:1003300085E090E090938D0080938C0008959C015F
:10034000220F331F280F391FF901EE0FFF1FE2574D
:10035000FD4F8481958160817181680F791F2091A3
:10036000640030916500A901415F5F4F82179307D8
:1003700034F0461757078CF4281739071CF062171A
:10038000730774F44817590774F021E030E06417DC
:1003900075075CF420E030E008C021E030E005C0E3
:1003A00021E030E002C020E030E0822F932F08955A
:1003B000CF93DF93FC01EE0FFF1FE80FF91FEE0F45
:1003C000FF1FE257FD4FA281B38124813581409107
:1003D000640050916500BA01421753070CF4B9014B
:1003E000FA013F96EC01CC0FDD1F8C0F9D1FEC0135
:1003F000CC0FDD1FC257DD4F88819981280F391F2F
:1004000021503040E217F3070CF49F0126173707FD
:10041000CCF0FD01E295F295F07FFE27E07FFE270C
:10042000CB01841B950BE80FF91FEE0FFF1FE2575E
:10043000FF4FCB0141E050E04193519301962817C3
:100440003907D4F7DF91CF9108950F931F93CF937E
:10045000DF9380E092E0EEE8F0E0DF019C011D9286
:1004600021503040E1F7C0910808D09109088FEF82
:100470009FE79093090880930808CE010596C81756
:10048000D907C4F48C01CE010E949F01009771F03E
:100490008091080890910908C817D90724F4D093CF
:1004A0000908C0930808CE010E94D8012196C01700
:1004B000D10749F7DF91CF911F910F9108952091B6
:1004C000640030916500A901415F5F4FFC01EE0FB0
:1004D000FF1FEE0FFF1FEE0FFF1FEA51FB4F828140
:1004E0009381821793071CF04817590764F401960B
:1004F000821793075CF021E030E04817590744F475
:1005000020E030E005C021E030E002C020E030E033
:10051000822F932F0895AF92BF92CF92DF92EF92E6
:10052000FF920F931F93CF93DF936C01FC01EE0FAB
:10053000FF1FEE0FFF1FEE0FFF1FEA51FB4FA080C2
:10054000B180E0906400F0906500428153818A019F
:100550004E155F050CF48701C7010F964F5F5F4F83
:10056000841795070CF4AC0140175107C4F1F5014D
:100570003197E295F295F07FFE27E07FFE27C801D4
:100580008E199F09E80FF91FEE0FFF1FE257FF4F6B
:10059000C80161E070E0C0E0D0E0DF0120A131A13E
:1005A0002430310509F4BE0132962D913C9111970A
:1005B0002430310509F4BE010196481759076CF73C
:1005C0006115710561F4F601EE0FFF1FEE0FFF1FBD
:1005D000EE0FFF1FEA51FB4F1782168258C0C5016C
:1005E0000297B8016E197F09FC01E295F295F07F40
:1005F000FE27E07FFE27E60FF71FEE0FFF1FE257F3
:10060000FF4F2081318122303105C9F09A012E1926
:100610003F09FC01E295F295F07FFE27E07FFE277F
:10062000E20FF31FEE0FFF1FE257FF4F8081918112
:100630008230910521F0401751076CF428C0F60173
:10064000EE0FFF1FEE0FFF1FEE0FFF1FEA51FB4FD4
:10065000178216821CC00894A108B108F501E29522
:10066000F295F07FFE27E07FFE276E0F7F1FFB01D4
:10067000EE0FFF1FE257FF4F83E090E091A380A3AE
:10068000819391930F5F1F4F40175107BCF7DF9184
:10069000CF911F910F91FF90EF90DF90CF90BF907F
:1006A000AF9008950F931F93CF93DF93C0910808E5
:1006B000D0910908CE010596C817D9070CF58E010F
:1006C000000F111F000F111F000F111F04511B4FAE
:1006D000F80180819181009741F0CE010E945F0274
:1006E000009719F0CE010E948B022196085F1F4FE0
:1006F00080910808909109080596C817D90744F316
:10070000DF91CF911F910F91089520916400309156
:100710006500AC01440F551F480F591FFA01EE0F39
:10072000FF1FEA59FF4F82819381821793075CF084
:10073000A901415F5F4F21E030E0481759072CF4D1
:1007400020E030E002C020E030E0822F932F0895B7
:100750009C01220F331F280F391FF901EE0FFF1FD5
:10076000EA59FF4F808191810280F381E02D209131
:10077000640030916500E21BF30B82959295907FA7
:100780009827807F9827E80FF91FEE0FFF1FE25789
:10079000FF4F84E090E0918380830895EF92FF9271
:1007A0000F931F93CF93DF93C8E6D0E000E010E0F3
:1007B0008A819B81009781F0888199810196998334
:1007C0008883C8010E948503009721F0C8010E9418
:1007D000A80302C01B821A820F5F1F4F26960530A6
:1007E000110531F7DF91CF911F910F91FF90EF909D
:1007F000089580918C0090918D00009709F458C065
:100800002091860030918700809188009091890026
:100810000196F901E295F295F07FFE27E07FFE2731
:10082000E80FF91FEE0FFF1FE257FF4F41E050E0C6
:10083000608171816115710511F040E050E0F901AE
:100840003197E295F295F07FFE27E07FFE27E80FD3
:10085000F91FEE0FFF1FE257FF4F60817181611595
:10086000710511F040E050E022503040F901E2956E
:10087000F295F07FFE27E07FFE278E0F9F1FFC0181
:10088000EE0FFF1FE257FF4F80819181009799F48F
:100890004115510599F0B09B14C021E030E08091E2
:1008A000840090918500009771F020E030E00BC04B
:1008B00020E030E008C020E030E005C020E030E07B
:1008C00002C020E030E0822F932F089526B330E05D
:1008D00028703070822F932F089582E090E09093DB
:1008E00087008093860010928B0010928A000895F2
:1008F00080918C0090918D00019790938D00809352
:100900008C000E94E00008950F931F93CF93DF9314
:100910008091060890910708009709F072C0A09195
:100920008A00B0918B001A161B06B4F52091860040
:10093000309187001197E0918800F0918900215053
:10094000304080E090E06EE870E000E010E0A90147
:10095000481B590B42955295507F5427407F54278E
:100960004E0F5F1F440F551F460F571FEA01488166
:1009700059814130510519F42F5F3F4FD80101963D
:100980008330910521F73093870020938600B09340
:100990008B00A0938A001FC08091860090918700F1
:1009A0000196FC01E295F295F07FFE27E07FFE279D
:1009B0002091880030918900E20FF31FEE0FFF1F96
:1009C000E257FF4F208131812115310521F49093A9
:1009D00087008093860080918600909187009C011B
:1009E000225030403AF482E090E090938700809368
:1009F000860007C08F30910524F00E9478040E9481
:100A00006D04DF91CF911F910F91089580918C001B
:100A100090918D00009709F451C00E948404609168
:100A20008600709187004091880050918900FB01F9
:100A3000E295F295F07FFE27E07FFE27E40FF51F99
:100A40002EE830E0EE0FFF1FE20FF31F82E090E090
:100A500091838083FB013197E295F295F07FFE2729
:100A6000E07FFE27E40FF51FEE0FFF1FE20FF31FDD
:100A7000918380836250704062957295707F762773
:100A8000607F7627460F571F440F551F240F351FD1
:100A9000F9019183808320918C0030918D00121692
:100AA000130664F4EEEAF0E080E090E042E050E00B
:100AB00052934293019682179307D4F308958FEFD0
:100AC0008ABB81BB84BB84EF87BB089580918C0077
:100AD00090918D001816190634F5E0918600F0917A
:100AE00087003196E295F295F07FFE27E07FFE27A2
:100AF0008091880090918900E80FF91FEE0FFF1F89
:100B0000E257FF4F80819181009781F0B19B11C026
:100B100021E030E08091060890910708009759F095
:100B200020E030E008C020E030E005C020E030E008
:100B300002C020E030E0822F932F089586E090E0FD
:100B400090938B0080938A00089580916400909127
:100B500065000196909365008093640008958091EC
:100B60006A0090916B00009779F0E0E7F0E081E097
:100B700090E0208131812115310541F001963696B2
:100B800085309105B1F7089580E090E0FC01EE0F0B
:100B9000FF1F8E0F9F1FFC01EE0FFF1FEA59FF4F33
:100BA00081E090E095838483809186009091870016
:100BB0000197918380838091640090916500938375
:100BC00082830895EF92FF920F931F93CF93DF9349
:100BD0000E945F050E94E9000E9463010E94880153
:100BE000C4E0D0E002E010E00F2EFCE8EF2EF0E0D1
:100BF000FF2EF02D20910608309107082F5F3F4F00
:100C000080918400909185000196BE010E943C066F
:100C10009093850080938400C901B8010E943C062E
:100C200090930708809306080E9425020E94CE0335
:100C30000E9406050E9452030E945600F70180811F
:100C400091810097B9F20E94F903009711F00E9478
:100C5000A5050E9456000E946605009711F00E94AB
:100C60009E050E9456000E946604009711F00E94A3
:100C7000AF050E945600BECF97FB092E07260AD06B
:100C800077FD04D00CD006D000201AF47095619541
:100C90007F4F0895F6F7909581959F4F0895AA1B71
:100CA000BB1B51E107C0AA1FBB1FA617B70710F057
:100CB000A61BB70B881F991F5A95A9F78095909589
:0A0CC000BC01CD010895F894FFCFA8
:040CCA0064000500BD
:00000001FF
